:04000000020049327F
:03000B000200F5FB
:0100130032BA
:01001B0032B2
:0100230032AA
:01002B0032A2
:01003300329A
:01003B003292
:030043000200B602
:0300B30002004602
:0300460002013480
:2000B600C021C0E0C0F0C082C083C007C006C005C004C003C002C001C000C0D075D0001271
:2000D600056BD0D0D000D001D002D003D004D005D006D007D083D082D0F0D0E0D02132C066
:2000F60021C0E0C0F0C082C083C007C006C005C004C003C002C001C000C0D075D0001201F0
:200116008AD0D0D000D001D002D003D004D005D006D007D083D082D0F0D0E0D021321201B8
:11013600781201A2120794120EC8D2AF120EFE80FBDC
:20014700AE82AF83EE4F6011E5C330E7FBE5C320E7FB1EBEFF011F80EB22C2A9781B868296
:20016700088683D2A92275A15575A1AA2275A1002275A15575A1AA74F855B94406F5B97533
:20018700A10022758A30758CF8781B8606088607781B74012EF6E43F08F622758A30758C1A
:0F01A700F8438901781BE4F608F6D2A9D28C221E
:1801B60075E200C2AF90000112014702380075A15575A1AA43B11022F3
:2001CE00D2B2D294D295D296D297D290D291D2B1D293D2B0227F10EF6004001F80F922C240
:2001EE00B11201E3A2B2B39200E433F53F758200120E6EA294B39200E433F53F7582011211
:20020E000E6EA295B39200E433F53F758209120E6EA296B39200E433F53F758202120E6EB0
:20022E00A297B39200E433F53F75820A120E6EA290B39200E433F53F758203120E6EA291DB
:20024E00B39200E433F53F75820B120E6ED2B1C2931201E3A2B2B39200E433F53F758208BF
:20026E00120E6EA294B39200E433F53F758207120E6EA295B39200E433F53F758210120EA2
:20028E006EA296B39200E433F53F758206120E6EA297B39200E433F53F75820F120E6EA290
:2002AE0090B39200E433F53F758205120E6EA291B39200E433F53F75820E120E6ED293C209
:2002CE00B01201E3A2B2B39200E433F53F758204120E6EA294B39200E433F53F75820C1222
:2002EE000E6EA295B39200E433F53F75820D120E6EA296B39200E433F53F758211120E6EBD
:20030E00A297B39200E433F53F758212120E6EA290B39200E433F53F758213120E6EA291E2
:10032E00B39200E433F53F758214120E6ED2B022F2
:201E2E0004000000160000000B00000017000000100000001100000008000000120000001D
:201E4E000C0000000700000015000000060000000A0000001C0000000F00000018000000F9
:201E6E00130000002C0000022A0000012C0000032800000414000000190000001A00000046
:201E8E002B0000002A000000090000000D0000002A0000001D0000001B0000002B0000003C
:201EAE002A0000000E00000005000000E8000000FFFFFFFF22020000FFFFFFFF2E020000A3
:201ECE001E0000001F000000200000002100000022000000FFFFFFFF310000002D000000FA
:201EEE002E00000023000000240000002500000026000000FFFFFFFFFFFFFFFF27000000F5
:201F0E0037000000FFFFFFFFFFFFFFFFFFFFFFFFFFFFFFFFFFFFFFFFFFFFFFFFFFFFFFFF98
:201F2E00FFFFFFFFFFFFFFFFFFFFFFFFFFFFFFFFFFFFFFFFFFFFFFFFFFFFFFFFFFFFFFFFB3
:201F4E001E0200001F02000020020000210200002302000024020000250200002602000053
:201F6E00270200003502000034020000310200002D0200002E0200002F02000030020000C8
:201F8E0036020000FFFFFFFFFFFFFFFFFFFFFFFF37020000FFFFFFFFFFFFFFFFFFFFFFFFDA
:201FAE00FFFFFFFFFFFFFFFFFFFFFFFFFFFFFFFFFFFFFFFFFFFFFFFFFFFFFFFFFFFFFFFF33
:201FCE00FFFFFFFFFFFFFFFFFFFFFFFFFFFFFFFF29000000FFFFFFFFFFFFFFFF4C00000096
:201FEE004B00000050000000520000004F000000280000002B000000FFFFFFFFFFFFFFFF4C
:20200E00FFFFFFFF4E0000004A000000510000004D000000FFFFFFFFFFFFFFFFFFFFFFFF8C
:20202E00FFFFFFFFFFFFFFFFFFFFFFFFFFFFFFFFFFFFFFFFFFFFFFFFFFFFFFFFFFFFFFFFB2
:20204E00FFFFFFFFFFFFFFFFFFFFFFFFFFFFFFFFFFFFFFFFFFFFFFFFFFFFFFFFFFFFFFFF92
:20206E0004000000160000000B000000170000000A00000011000000080000000C000000E7
:20208E00120000000700000015000000100000000A0000001C0000000F00000018000000A7
:2020AE00130000002A0000012C0000022800000428000004FFFFFFFFFFFFFFFFFFFFFFFF5A
:2020CE00FFFFFFFFFFFFFFFFFFFFFFFFFFFFFFFFFFFFFFFFFFFFFFFFFFFFFFFFFFFFFFFF12
:2020EE00FFFFFFFFFFFFFFFFFFFFFFFFFFFFFFFF01C8000000000000000000000000000019
:20210E000000000000003215000100321601020032170203003218030400321904050032F9
:20212E001A050600321B060700321C070800321D090A00321E0A0B00321F0B0C0032200D27
:10214E000E0032210E0F0032220F10003223000833
:20033E009001C7E024F750067E087F0080089001C7E0FDFE7F008EDDE5DD602B850853859A
:20035E00095475558085DD567557009001B375F000121D209001C7E0C395DDF0E5DD250810
:20037E00F508E43509F5092275DCC09001C7E4F09001B475F000121DD6FF24F450030205C3
:20039E0005EF240A83F582EF241083F583E4736F7C05BF053CC505624D05E1040405040549
:2003BE00040305040405049001B675F000121DD6FFBF0102800ABF02028013BF2238801CFB
:2003DE009001C77412F075085E75092180289001C77422F0750870750921801A9001B7754E
:2003FE00F000121DD6FF6002800C9001C7742DF07508927509219001C7E07003020505901F
:20041E0001B975F000121DD6FF9001C7E0FEC3EF9E50059001C7EFF043D10202033E90019F
:20043E00B575F000121DD69001C7F053D1FD22E5E3547FFF9001B575F000121DD6035480D3
:20045E004FF5E322E5E32354019001B3F075DD01229001B3E4F09001B4F075DD02229001F8
:20047E00B3E0FFBFA10280030205059001B775F000121DD6FF60030205057F00BF08005025
:20049E001CEF24B3FDE43401FEEF24BDF582E43401F583E0FC8D828E83F00F80DF75DD08BC
:2004BE00229001B3E0FFBFA13E9001B775F000121DD6FF60028030A201E4339001B3F07515
:2004DE00DD01229001B3E0FFBF211C9001B775F000121DD6FF6002800E9001B575F0001281
:2004FE001DD624FF92012243DC0F229001C7E0700122E5D130E10712033E63DC4022748042
:20051E0055E3FF9001C7E04FF5E32222AF82C2EAEF24BDF582E43401F583E0FFD2EA8F8282
:20053E0022AF82C2EAEF24BDF582E43401F583E50AF0D2EA02055553D2FC2253D2FCE5D2B4
:20055E0030E1FB2274FC55D24402F5D22220D90302077175DD00E5D9540FFFADD953053093
:20057E007E00BD0006BE000302076FBD2006BE000302073BBD3005BE0002800302076FEF5F
:20059E00600302076F75DCC09001C7E4F09001B475F000121DD6FE24F45003020736EE24BC
:2005BE000A83F582EE241083F583E47398A736EC365CE2368870361006060706070605072A
:2005DE00060607079001B675F000121DD6FEBE0102800ABE02028013BE2238801C9001C788
:2005FE007412F075085E75092180289001C77422F0750870750921801A9001B775F0001282
:20061E001DD6FE6002800C9001C7742DF07508927509219001C7E070030207369001B9759D
:20063E00F000121DD6FE9001C7E0FDC3EE9D50059001C7EEF043D10212033E02076F900129
:20065E00B575F000121DD6FE9001C7F053D1FD02076FE5E3547FFE9001B575F000121DD635
:20067E00035480FD4EF5E302076FE5E3235401FE9001B3F075DD0102076F9001B3E4F09005
:20069E0001B4F075DD0202076F9001B3E0FEBEA10280030207369001B775F000121DD6FED6
:2006BE0060030207367E00BE0800501CEE24B3FCE43401FDEE24BDF582E43401F583E0FB41
:2006DE008C828D83F00E80DF75DD0802076F9001B3E0FEBEA1429001B775F000121DD6FE3C
:2006FE0060028034A201E433FE9001B3F075DD01805F9001B3E0FEBE211E9001B775F000DC
:20071E00121DD6FE600280109001B575F000121DD6FE24FF9201803943DC0F8034BF000206
:20073E008005BF012C80229001C7E06024E5D130E10812033E63DC408017748055E3FF90D9
:20075E0001C7E0FE4FF5E3800874FC55D24402F5D2C2D930D8139001C7E4F0D20175DC027A
:20077E0075E300C2DAC2D9C2D810DA0122E5DA20E20375D8FF2243E20653E2FD7F08EF60C0
:20079E001B1FEF24B3F582E43401F583E4F0EF24BDF582E43401F583E4F080E29001C7E415
:2007BE00F0D20175E22975D18175DD0075ECB375ED0175D30875EEBD75EF0175D21275EABB
:0707DE004075E107D2EA2299
:20215E001201100100000008BAAB010000010000000109022200010100C03209040000019E
:20217E0003010100092111010001222D000705810308000105010906A101050719E029E74B
:20219E001500250175019508810295017508810195067508150025650507190029658100D0
:0121BE00C060
:0700A2009001A7E4F0A3F0B8
:2007E5009001A7E0FEA3E08E82F58322121980E58260047582012275820022AF827E007DDC
:2008050002BD080050378D82C007C006C00512052AAC82D005D006D007ECB5070AEE540F30
:2008250060028003ED4206EC7010EE54F0600280098D04ECC454F0FC42060D80C48E8222C4
:20084500AF827E007D08ED70030208EB1D8DF005F07B017C008006EB2BFBEC33FCD5F0F715
:200865008F017A00E95203EA5204EB4C604BE522601DED24ABFBE43401FCED24ABF582E4A2
:200885003401F583E0FA0A8B828C83EAF0802AED24ABFBE43401FC8B828C83E0601BED24CE
:2008A500ABFBE43401FCED24ABF582E43401F583E0FA1A8B828C83EAF0ED24ABFBE43401FA
:2008C500FC8B828C83E060067B017C0080047B007C008D048CF005F0EB800225E0D5F0FB0E
:2008E500FB420602084B758200C00612052AAF82D006EFB50601228E0A75820002053FAF05
:2009050082758200C00712052AAE82D0077D00E5236005EF4EFD80327F08EF602D1FEF243F
:20092500ABFBE43401FC8B828C83E060067B017C0080047B007C008F048CF005F0EB8002B1
:2009450025E0D5F0FBFB420580D0EEB50501228D0A75820002053FAF82C007120800AE825A
:20096500D007740F5EFD5306F0E4C4CEC4540F6ECE540FCE6ECE30E30244F0E5246006ED89
:200985007003EE7008E5247003ED700122E524600280028D06E52460068F057F0080047D7A
:2009A500007F008D0A8E8212053F120161E5828583F09001A7F0E5F0A3F0228582251211E2
:2009C5009A85822685832785F02874022526F9E43527FAAB2889828A838BF0121DD6FB75B0
:2009E500F005A424F3F9740035F0FA89298A2A752B00752C0274012526F52DE43527F52EC8
:200A050085282F852D82852E83852FF0121DD6704EE525704A8526828527838528F0121D38
:200A2500D6603C74012529F9E4352AFAAF2B8B82C007C002C001120F0DA882AB83ADF0FEF4
:200A4500D001D002D00789828A838FF0E8121D75A3EB121D75A3ED121D75A3EE121D7574E5
:200A6500012529FDE4352AFEAF2B8D828E838FF0121DD6F9A3121DD6FAA3121DD6FBA31273
:200A85001DD689828A838BF0C007C006C0051207F1AC82D005D006D007ECFB70678D828E64
:200AA500838FF0121DD6FDA3121DD6FEA3121DD6FFA3121DD6FC8526828527838528F01231
:200AC5001DD6F53C8D828E838FF0EC120CD6852982852A83852BF0121DD6FF5307FB852668
:200AE500828527838528F0121DD625E025E0FE4207852982852A83852BF0EF121D75752C17
:200B050002020BA1E4FEFF7401B5252EC003120161AC82AD83D00374032526F8E43527F967
:200B2500AA28888289838AF0121DD6F8A3121DD6F9ECC398FEED99FF80497402B52544C0C9
:200B4500031211A1AA82AC83ADF0D00374032AFAE43CFC8A828C838DF0121DD6FAA3121DDE
:200B6500D6FC74032526F8E43527F9AD28888289838DF0121DD6F8A3121DD6F9EAC398FE62
:200B8500EC99FFBB01168525458E468F47852982852A83852BF0121AD185822C120559744B
:200BA50002B5250DE52C30E2051212CF80031211B9E52C5403600D121193AD82AE83AFF043
:200BC500E4121D75E52C30E1030211D7E52C30E011852D82852E83852FF07401121D75021E
:200BE50013832212118CE582700D121185E58260067582010209C012118CE582601A1211BA
:200C050085E58260087582021209C080EA1211B97582001209C080DF22E582FF75F005A49A
:200C250024F3FD740035F0FE8D318E32753300E5306003020CB88531828532838533F01274
:200C45001DD6FB30E26D74012531F539E43532F53A85333B853982853A83853BF0121DD685
:200C6500FBA3121DD6FCA3121DD6FDA3121DD6FE753C008B828C838DF0EE120CD685318221
:200C85008532838533F0121DD6FE5306FB8531828532838533F0EE121D75853982853A83E8
:200CA500853BF0E4121D75A3121D75A3121D75A3021D758530347535008F36120161E582FF
:200CC5008583F0F53785F03890003475F040021273AC82AD83AEF0FF780079008E02741F3F
:200CE5005FFBB8000BB90008BAFF05BB1F02805CE4F8F9FA741F5FFB6030E53C60178B82AA
:200D0500C007C006C005C004121097D004D005D006D00780158B82C007C006C005C00412DF
:200D250010B0D004D005D006D00779008E028A00E8FB6018853C228B82C007C006C005C0A8
:200D450004120845D004D005D006D0078D0189038C028A3D741F553DF53EA83D5300E0797D
:200D650000B8C005B90002800BB8E005B90002803E020E13E53C700122BB0002800BBB01BA
:200D8500028012BB0202801322853E8212107A75820002108E853E820210CAA83E88F0054A
:200DA500F07401800225E0D5F0FBF58202108E5302078B007900E828F8E933F9E828F8E9FD
:200DC50033F9530418E4FDFEFFEDC423CCC423541F6CCC541FCC6CCCFDEEC42354E04DFD9C
:200DE500EFC423CEC423541F6ECE541FCE6ECEEC48FEED49FFBA0039BE0005BF00028008D1
:200E0500BE012EBF002B80030201C40201B6EB6008853C228B82120845E53D6009853C24E1
:200E2500853D8212095CE53C7007F523F58202090422AC82AD83AEF0FF753C018C828D83CF
:200E45008EF0EFC007C006C005C004120CD6120559D004D005D006D007753C008C828D8381
:200E65008EF0EF120CD6020559E582FF75F005A424F3FD740035F0FC7E008D828C838EF075
:200E8500121DD6FBF9530102E4A2E713C913C9E9B53F1D74015BB53F012274FE5B453F8D1A
:200EA500828C838EF0121D75853F118F820214045303FDE53F25E042038D828C838EF0EB32
:200EC500021D757F24EF60141FEF75F005A424F3F582740035F0F583E4F080E97F08EF60A5
:200EE5000F1FEF24ABF582E43401F583E4F080EE1219611213970201CE1201ED90000512F7
:080F0500014712158A020BE8F6
:0A00A9009001A9E4F09001AA04F010
:200F0D00AF827DFF7EFF8E0B8E0CEF2F25E0FF7A048A82C007C006C005C00212111DE58200
:200F2D00D002D005D006D0077003020FBDEA75F090A4242EF8741E35F0F9EF28F582E439E7
:200F4D00F583E493F50DA3E493F50EA3E493F50FA3E493F510C4540FF879007B007C00B8F2
:200F6D000E2CB90029BB0026BC00238D038E04E4BBFF04BCFF0104FBA90BAC0CE4B9FF04FD
:200F8D00BCFF01046B6007900000E4F5F0228D038E04BBFF0BBCFF08AB0FAC108B058C06F5
:200FAD00AB0BAC0CBBFF09BCFF06850D0B850E0C8A041AEC601A8D038E04BBFF06BCFF0348
:200FCD00020F1EAB0BAC0CBBFF06BCFF03020F1E8D048E07BCFF07BFFF047D007E00AB0B5F
:200FED00AC0CBBFF08BCFF05E4F50BF50C8E048D077D007E00A80BA90CE4FAFBE84205E94B
:20100D004206EA4207EB42048D828E838FF0EC227F047E04EE60198E82C007C00612111D21
:20102D00E582D006D00760038F82221E8E0780E4758200227F007E00BE0500502B8EF0050B
:20104D00F07C017D008006EC2CFCED33FDD5F0F79001AAE0FB7A005204EA5205EC4D600363
:20106D008F82220E8E0780D07582002222AF828FF005F07401800225E0D5F0FBF582021018
:20108D00E1E5829001A9F0021079AF828FF005F07401800225E0D5F0FBFF9001A9E04FF08D
:2010AD00021079AF828FF005F07401800225E0D5F0FBF4FF9001A9E05FF0021079AF82C05F
:2010CD0007121152E582D00760058F820210978F820210B0E5829001AAF0021079AF828F7A
:2010ED00F005F07401800225E0D5F0FBFF9001AAE04FF0021079AF828FF005F074018002C2
:20110D0025E0D5F0FBF4FF9001AAE05FF0021079AF829001A9E0FE9001AAE042068FF005E5
:20112D00F07F017D008006EF2FFFED33FDD5F0F77C00EE5207EC5205EF4DB40100B39202FB
:20114D00E433F58222AF829001A9E0FE9001AAE042068FF005F07F017D008006EF2FFFED25
:18116D0033FDD5F0F77C00EE5207EC5205E4BF0004BD000104F5822276
:201185009000F0E0F582229000F1E0F582229000F275F0002290005075F000229000F0E087
:2011A50075F005A42450FEE43400FF7D008E828F838DF0229000F1E07001229000F0E0FF02
:2011C5000F9000F0EFF09000F1E0FF1F9000F1EFF0229000F0E07001227F009000F0E0FECB
:2011E5007D009000F1E07B002EFEEB3DFD1EBEFF011D8F037C00C3EB9EEC64808DF063F04D
:201205008095F05052EF75F005A42450FDE43400FE7A0074012BF553E43CF554900005C07E
:2012250007C006C005C002121D90AB82AC83D002D005D006EB2450FBEC3400FC8B538C5489
:201245007555007556057557008D828E838AF0121D20D0070F80849000F1E0FF9000F0E090
:20126500FE1EEE2F9000F1F09000F0E4F022AD82AE83AFF09000F0E0FC7B009000F1E0F919
:201285007A00E92CF553EA3BF554900005C007C006C005121D90AB82AC83D005D006D00780
:2012A500EB2450FBEC3400FC7A008D538E548F557556058A578B828C838AF0121D2090006D
:2012C500F1E0FF0F9000F1EFF0229000F1E07001227F009000F1E0FE7D001EBEFF011D8FD1
:2012E500037C00C3EB9EEC64808DF063F08095F040030213779000F0E0FE7D00EB2EF5536E
:20130500EC3DF554900005C007C004C003121D90AD82AE83D003D004ED2450FDEE3400FE2F
:201325007A009000F0E0F87900EB28FBEC39FC74012BF553E43CF554900005C006C005C0FD
:2013450002121D90AB82AC83D002D005D006EB2450FBEC3400FC8B538C5475550075560520
:201365007557008D828E838AF0121D20D0070F0212D89000F1E0FF1F9000F1EFF022900050
:20138500F1E0FF9000F0E02F9000F1F09000F0E4F0229000F0E4F09000F1F09000F2F022A9
:2013A500AF82900000E0FE7D001EBEFF011D8F037C00C3EB9EEC64808DF063F08095F050C4
:2013C50032EF2F2401FEE43400FD7C008F030BEB2B2401FBE43400FA8B538A548C557556B7
:2013E500028C578E828D838CF0C007121D20D0070F80AF900000E0FF1F900000EFF0228598
:201405008212E51170030214D27E0FEE60701EEE75F005A4FCADF02413F582ED3421F5837C
:20142500E493FB74075B2402FBEC2413FCED3421FD74032CFCE43DFDEB60D01BEB2CF5825F
:20144500E43DF583E493FAB512EE851213751400900000E0FE04900000F0EE2E2401FEE480
:201465003400FD7C007553138C547555407556028C578E828D838CF0121D2002158A7E003B
:20148500900000E0FDC3EE9D503AEE2EFD2401FBE43400FC8B828C83A3E0FCBCFF028021BC
:2014A500ED2401F582E43400F583E0FD7530018D82C006120C1ED0068E82C0061213A5D034
:2014C500060E80BC753001851282020C1E7E007D00900000E0FCC3ED9C4003021581ED2D24
:2014E500FC2401F582E43400F583E0FBB51202800302157BEC2401FCE43400FB8C828B83CA
:20150500A3E0FCBCFF03D38001C392038E82C0061213A5D00630030302158A7C007B00C3D6
:20152500EB9E5047EB2B2401FAE43400FF8A828F83A3E0FFBFFF030C802EEC2C2401F5826B
:20154500E43400F583E0FF7530018F82C006C004C003120C1ED003D0048C82C004C0031289
:2015650013A5D003D004D0060B80B4753001851282120C1E80060D8D060214D675300085BB
:201585001282020C1E900000E0FFEF602E1FEF2F2401FEE43400FD0EBE00010D8E047E003B
:2015A5008C828D838EF0121DD6FBBBFF0280DB8C828D838EF0E4121D7580CF75150074F111
:2015C50025155003021917751600E51575F005A4FCADF02413F582ED3421F583E493FB74CD
:2015E500075B2402F517EC2413FCED3421FD74032CFCE43DFD7A00C3EA9517400302168881
:20160500EA2CF582E43DF583E493F97800900000E0FFC3E89F5068E828FF2401F582E43483
:2016250000F583E0FBE9B50353E51575F003A4F51985F01A2423F582E51A3400F583E0FB77
:20164500BB02028023EF2401FFE43400FB8F828B83A3E0FFBFFF11E5192423F582E51A349E
:2016650000F583E4F00219128A078FF005F07401800225E0D5F0FBFF4216800308808E0A31
:201685000215FCC204E51575F003A4FDAFF02423F582EF3400F583E0FCBC0102800302173A
:2016A5002AE516700FED2423F582EF3400F583E4F0021912C007C005120161AB82AC83D00E
:2016C50005D007ED2423F9EF3400FA89828A83A3E0F9A3E0FAEBC399FBEC9AFCE51575F0AB
:2016E50005A42413F9742135F0FA89828A83A3E493F97A00C3EB99EC9A40030219128517DA
:20170500F005F07B017C008006EB2BFBEC33FCD5F0F71BBBFF011CA9167A00E9B50306EABD
:20172500B50402D204ED2423F582EF3400F583E0FCBC02030217F3E51575F005A42413FBEA
:20174500742135F0FC74032BFBE43CFC751800C3E518951740030217F38518F005F07801D2
:2017650079008006E828F8E933F9D5F0F7AA167E00EA5200EE5201E849606EE5182BF58233
:20178500E43CF583E493FE7A00900000E0F9C3EA995056EA2AF92401F582E43400F583E04F
:2017A500F8EEB5004130041AC003C004E92401F8E43400FC88828C83A374FFF0D004D00393
:2017C5008027C003C004E92401F8E43400F908B800010988828983E0FC0C88828983ECF005
:2017E500D004D00380030A80A00518021754ED2423FCEF3400FE8C828E83E07039E51660B2
:2018050035ED2423F582EF3400F5837401F0ED2423FCEF3400FE0CBC00010EC006C004121F
:201825000161AA82AB83D004D0068C828E83EAF0EBA3F0021912ED2423F582EF3400F58353
:20184500E0FEBE013230042FED2423F582EF3400F5837402F0E51575F005A42413FC7421D5
:2018650035F0FE8C828E83A3A3E493FE7530018E82120C1E021912ED2423F582EF3400F584
:2018850083E0FEBE02028003021912E51575F005A4FCAEF02413F582EE3421F583E49330BE
:2018A500E30CE4B5160474018001E4FB8037C004C0068517F005F079017A008006E929F965
:2018C500EA33FAD5F0F719B9FF011AA8167E00E8B50107EEB50203D38001C3B39205E43343
:2018E500FBD006D004EB6025ED2423F582EF3400F583E4F0EC2413FCEE3421FE8C828E8335
:20190500A3A3E493FF7530008F82120C1E05150215C37F00900000E0FEC3EF9E503DEF2F38
:20192500FE2401FCE43400FD8C828D83A3E0FDBDFF030F80DFED7023EE2401F582E4340081
:20194500F583E0FE7530018E82C007120C1ED0078F82C0071213A5D00780B9227F0FEF60EB
:1B196500141FEF75F003A42423F582740035F0F583E4F080E9900000E4F022A7
:20198000AC82AD83AEF0FFEE7003EF6006EC7007ED7004C2068002D206A206E433F5822258
:2019A000AD82AE83AFF074032DFDE43EFEAB407C007553028C548B828C83C007C006C005E8
:2019C000C004C003121DF2A982AA83D003D004D005D006D007E92DFDEA3EFE8D828E838FF6
:2019E000F0121DD6FFEB30E007EFC4540FF58222740F5FF5822275820022E58260588544C6
:201A0000537554038541828542838543F01219F6AF8274012541FCE43542FDAE438C828D50
:201A2000838EF0121DD6A3121DD6A3121DD6FAA3121DD6FB7800790053031F8C828D838EA1
:201A4000F0E8121D75A3E9121D75A3EA121D75A3EB121D75805385445375540285418285F0
:201A600042838543F01219F6AF8274012541FCE43542FDAE438C828D838EF0121DD6F8A33B
:201A8000121DD6F9A3121DD6A3121DD67A007B008C828D838EF0E8121D75A3E9121D75A308
:201AA000EA121D75A3EB121D75EF6021AD41AE42AF438D828E838FF0121DD6FC4304048DAE
:201AC000828E838FF0EC121D757582022275820122AD82AE83AFF0C007C006C00512119A21
:201AE00085824885834985F04AD005D006D00774012DF8E43EF98F04888289838CF0121DFC
:201B0000D6A3121DD6A3121DD6A3121DD654E0C4035407F8E4E875F015A424FEF54B7420C9
:201B200035F0F54CC007C006C00512119385824D85834E85F04FD005D006D007E546454790
:201B4000604B854D82854E83854FF0121DD6703D854B82854C83A3E493F9A3E493FA496044
:201B60002CA846AC47C3E899EC9A4021854B82854C83E493FC74015CFBBB0103EB8001E439
:201B8000F5828D418E428F438C440219FAE4B54502800A7402B54502801C021D1C854B8274
:201BA000854C83E493F5537554018D828E838FF01219F6021D1CC007C006C0051211A185B2
:201BC000825085835185F052D005D006D00774022548F8E43549F9AC4A888289838CF012C1
:201BE0001DD6F874022550FAE43551FBAC528A828B838CF0121DD6FCE8B50403D38001C360
:201C00009207854D82854E83854FF0121DD6FB6003021D1C200703021CB585508285518372
:201C20008552F0121DD66003021D1C854B82854C83E493F5537554028D828E838FF0C007A4
:201C4000C006C0051219F6E582D005D006D007603274012DFBE43EF98F028B8289838AF081
:201C6000121DD6F8A3121DD6F9A3121DD6A3121DD67A007B008B3C888289838AF0EB120C21
:201C8000D6802E74012DFBE43EF98F028B8289838AF0121DD6F8A3121DD6F9A3121DD6A3FB
:201CA000121DD67A007B00888289838AF0EB120E3775820622A94BAA4C7B808C4089828AF3
:201CC000838BF0C007C006C0051219A0AC82D005D006D007EC30E044855082855183855272
:201CE000F0121DD6FB8C01530104E4A2E713C913C9A2E713C913C9FA8B007B00E8B5011CEF
:201D0000EBB50218530402854B82854C83E493F5448D418E428F438C820219FA75820022AE
:06007800E478FFF6D8FD5C
:201D2000AD82AE83AFF08D588E598F5A85535B85545C85555DA856A9578803890418B8FF6B
:201D40000119EB4C6025855B82855C83855DF0121DD6FCA385825B85835C8D828E838FF00C
:151D6000EC121D75A3AD82AE8380CE855882855983855AF022DC
:200056007900E94400601B7A009021BF780175A000E493F2A308B8000205A0D9F4DAF27570
:02007600A0FFE9
:1B1D750020F71130F6138883A88220F509F6A8837583002280FEF280F5F0226D
:1D1D9000E5828553F0A4C582C0F08554F0A4D0F025F0C5838553F0A42583F5832234
:201DAD007A10E4FBFCE58225E0F582E58333F583EB33FBEC33FCEB9553F5F0EC95544006B4
:091DCD00FCABF0438201DADD22D7
:20007E007800E84400600A790175A000E4F309D8FC7800E84400600C7900900001E4F0A380
:04009E00D8FCD9FAB7
:0D00490075815D121E2AE5826003020046EB
:1C1DD60020F71430F6148883A88220F507E6A88375830022E280F7E49322E0221C
:201DF200C2D5E58330E70DD2D5E4C39582F582E49583F583E55430E70DB2D5E4C39553F5F6
:181E120053E49554F554121DAD30D50BE4C39582F582E49583F5832298
:041E2A00758200229B
:00000001FF
