:04000000020049327F
:03000B000200FBF5
:0100130032BA
:01001B0032B2
:0100230032AA
:01002B0032A2
:01003300329A
:01003B003292
:030043000200BCFC
:0300B900020046FC
:0300460002013A7A
:2000BC00C021C0E0C0F0C082C083C007C006C005C004C003C002C001C000C0D075D000126B
:2000DC0005C2D0D0D000D001D002D003D004D005D006D007D083D082D0F0D0E0D02132C009
:2000FC0021C0E0C0F0C082C083C007C006C005C004C003C002C001C000C0D075D0001201EA
:20011C00E1D0D0D000D001D002D003D004D005D006D007D083D082D0F0D0E0D0213212015B
:20013C00CF1201F91207EB120F64D2AF53B0C75396C77F00BF020040387582011211B9E5D3
:20015C0082600343B0087582021211B9E582600343B0107582031211B9E582600343B0204E
:20017C007582041211B9E582600343B0307F00800853B0C78F06EE04FFC007120F9AD007EF
:02019C0080B22F
:20019E00AE82AF83EE4F6011E5C330E7FBE5C320E7FB1EBEFF011F80EB22C2A9781B86823F
:2001BE00088683D2A92275A15575A1AA2275A1002275A15575A1AA74F855B94406F5B975DC
:2001DE00A10022758A30758CF8781B8606088607781B74012EF6E43F08F622758A30758CC3
:0F01FE00F8438901781BE4F608F6D2A9D28C22C7
:18020D0075E200C2AF90000112019E02380075A15575A1AA43B1102244
:20022500D2B2D294D295D296D297D290D291D2B1D293D2B0227F10EF6004001F80F922C2E8
:20024500B112023AA2B2B39200E433F53F758200120F0AA294B39200E433F53F75820112C4
:200265000F0AA295B39200E433F53F758209120F0AA296B39200E433F53F758202120F0A82
:20028500A297B39200E433F53F75820A120F0AA290B39200E433F53F758203120F0AA2914A
:2002A500B39200E433F53F75820B120F0AD2B1C29312023AA2B2B39200E433F53F75820873
:2002C500120F0AA294B39200E433F53F758207120F0AA295B39200E433F53F758210120F10
:2002E5000AA296B39200E433F53F758206120F0AA297B39200E433F53F75820F120F0AA263
:2003050090B39200E433F53F758205120F0AA291B39200E433F53F75820E120F0AD293C277
:20032500B012023AA2B2B39200E433F53F758204120F0AA294B39200E433F53F75820C12D5
:200345000F0AA295B39200E433F53F75820D120F0AA296B39200E433F53F758211120F0A8E
:20036500A297B39200E433F53F758212120F0AA290B39200E433F53F758213120F0AA29151
:10038500B39200E433F53F758214120F0AD2B022FE
:2020340004000000006420E0026420E0046420E010000000066420E0086420E00A6420E002
:202054000C0000000700000015000000060000000A0000001C0000000F00000018000000F1
:20207400130000002A0000022C0000012C0000032800000414000000190000001A0000003E
:202094002B0000002A000000090000000D0000002A0000001D0000001B0000002B00000034
:2020B4002A0000000E00000005000000E8000000FFFFFFFF22020000FFFFFFFF2E0200009B
:2020D4001E0000001F000000200000002100000022000000FFFFFFFF310000002D000000F2
:2020F4002E00000023000000240000002500000026000000FFFFFFFFFFFFFFFF27000000ED
:2021140037000000FFFFFFFFFFFFFFFFFFFFFFFFFFFFFFFFFFFFFFFFFFFFFFFFFFFFFFFF90
:20213400FFFFFFFFFFFFFFFFFFFFFFFFFFFFFFFFFFFFFFFFFFFFFFFFFFFFFFFFFFFFFFFFAB
:202154001E0200001F0200002002000021020000230200002402000025020000260200004B
:20217400270200003502000034020000310200002D0200002E0200002F02000030020000C0
:2021940036020000FFFFFFFFFFFFFFFFFFFFFFFF37020000FFFFFFFFFFFFFFFFFFFFFFFFD2
:2021B400FFFFFFFFFFFFFFFFFFFFFFFFFFFFFFFFFFFFFFFFFFFFFFFFFFFFFFFFFFFFFFFF2B
:2021D400FFFFFFFFFFFFFFFFFFFFFFFFFFFFFFFF29000000FFFFFFFFFFFFFFFF4C0000008E
:2021F4004B00000050000000520000004F000000280000002B000000FFFFFFFFFFFFFFFF44
:20221400FFFFFFFF4E0000004A000000510000004D000000FFFFFFFFFFFFFFFFFFFFFFFF84
:20223400FFFFFFFFFFFFFFFFFFFFFFFFFFFFFFFFFFFFFFFFFFFFFFFFFFFFFFFFFFFFFFFFAA
:20225400FFFFFFFFFFFFFFFFFFFFFFFFFFFFFFFFFFFFFFFFFFFFFFFFFFFFFFFFFFFFFFFF8A
:2022740004000000160000000B000000170000003A0000003B0000003C0000003D00000020
:202294003E0000000700000015000000100000000A0000003F0000004000000041000000F6
:2022B400420000002C0000012A0000022800000428000004FFFFFFFFFFFFFFFFFFFFFFFF23
:2022D400FFFFFFFF430000004400000045000000FFFFFFFFFFFFFFFFFFFFFFFFFFFFFFFF32
:2022F400FFFFFFFFFFFFFFFFFFFFFFFFFFFFFFFF01C8000000000000000000000000000011
:20231400000000000016000400160400000B0002000B020000170001001701000011000119
:202334000011010000080002000802000012000400120400000032150001003216010200A4
:20235400321702030032180304003219040500321A050600321B060700321C070800321D19
:20237400090A00321E0A0B00321F0B0C0032200D0E0032210E0F0032220F100032230008BC
:200395009001C8E024F750067E087F0080089001C8E0FDFE7F008EDDE5DD602B8508608534
:2003B500096175628085DD637564009001B475F000121F269001C8E0C395DDF0E5DD25087B
:2003D500F508E43509F5092275DCC09001C8E4F09001B575F000121FDCFF24F45003020562
:2003F5005CEF240A83F582EF241083F583E473C6D35C165C931C5CB9A45C38040405050586
:20041500040405040405059001B775F000121FDCFFBF0102800ABF02028013BF2238801C98
:200435009001C87412F075089475092380289001C87422F07508A6750923801A9001B87583
:20045500F000121FDCFF6002800C9001C8742DF07508C87509239001C8E0700302055C902E
:2004750001BA75F000121FDCFF9001C8E0FEC3EF9E50059001C8EFF043D1020203959001E6
:20049500B675F000121FDC9001C8F053D1FD22E5E3547FFF9001B675F000121FDC03548069
:2004B5004FF5E322E5E32354019001B4F075DD01229001B4E4F09001B5F075DD022290019E
:2004D500B4E0FFBFA102800302055C9001B875F000121FDCFF600302055C7F00BF08005016
:2004F5001CEF24B4FDE43401FEEF24BEF582E43401F583E0FC8D828E83F00F80DF75DD0863
:20051500229001B4E0FFBFA13E9001B875F000121FDCFF60028030A201E4339001B4F075B2
:20053500DD01229001B4E0FFBF211C9001B875F000121FDCFF6002800E9001B675F000121E
:200555001FDC24FF92012243DC0F229001C8E0700122E5D130E10712039563DC402274808A
:2005750055E3FF9001C8E04FF5E32222AF82C2EAEF24BEF582E43401F583E0FFD2EA8F8229
:2005950022AF82C2EAEF24BEF582E43401F583E50AF0D2EA0205AC53D2FC2253D2FCE5D205
:2005B50030E1FB2274FC55D24402F5D22220D9030207C875DD00E5D9540FFFADD9530530E5
:2005D5007E00BD0006BE00030207C6BD2006BE0003020792BD3005BE000280030207C6EF03
:2005F50060030207C675DCC09001C8E4F09001B575F000121FDCFE24F4500302078DEE24AD
:200615000A83F582EE241083F583E473EFFE8D438DB3398DDFC78D670606070707060607BC
:20063500060607079001B775F000121FDCFEBE0102800ABE02028013BE2238801C9001C826
:200655007412F075089475092380289001C87422F07508A6750923801A9001B875F00012B8
:200675001FDCFE6002800C9001C8742DF07508C87509239001C8E0700302078D9001BA75AC
:20069500F000121FDCFE9001C8E0FDC3EE9D50059001C8EEF043D1021203950207C690011A
:2006B500B675F000121FDCFE9001C8F053D1FD0207C6E5E3547FFE9001B675F000121FDC74
:2006D500035480FD4EF5E30207C6E5E3235401FE9001B4F075DD010207C69001B4E4F090FE
:2006F50001B5F075DD020207C69001B4E0FEBEA102800302078D9001B875F000121FDCFEC6
:20071500600302078D7E00BE0800501CEE24B4FCE43401FDEE24BEF582E43401F583E0FB90
:200735008C828D83F00E80DF75DD080207C69001B4E0FEBEA1429001B875F000121FDCFE83
:2007550060028034A201E433FE9001B4F075DD01805F9001B4E0FEBE211E9001B875F00081
:20077500121FDCFE600280109001B675F000121FDCFE24FF9201803943DC0F8034BF00029E
:200795008005BF012C80229001C8E06024E5D130E10812039563DC408017748055E3FF902A
:2007B50001C8E0FE4FF5E3800874FC55D24402F5D2C2D930D8139001C8E4F0D20175DC0221
:2007D50075E300C2DAC2D9C2D810DA0122E5DA20E20375D8FF2243E20653E2FD7F08EF6069
:2007F5001B1FEF24B4F582E43401F583E4F0EF24BEF582E43401F583E4F080E29001C8E4BB
:20081500F0D20175E22975D18175DD0075ECB475ED0175D30875EEBE75EF0175D21275EA61
:070835004075E107D2EA2241
:202394001201100100000008BAAB010000010000000109022200010100C032090400000166
:2023B40003010100092111010001222D000705810308000105010906A101050719E029E713
:2023D400150025017501950881029501750881019506750815002565050719002965810098
:0123F400C028
:0700A2009001A7E4F0A3F0B8
:20083C009001A7E0FEA3E08E82F58322AC82AD83AEF0FFC007C006C005C004121DBCE582F6
:20085C00D004D005D006D0076004758202228C828D838EF0EF121A1CE582600475820122EF
:20087C0075820022AF827E007D02BD080050378D82C007C006C005120581AC82D005D006F7
:20089C00D007ECB5070AEE540F60028003ED4206EC7010EE54F0600280098D04ECC454F03A
:2008BC00FC42060D80C48E8222AF827E007D08ED700302096B1D8DF005F07B017C0080063E
:2008DC00EB2BFBEC33FCD5F0F78F017A00E95203EA5204EB4C604BE522601DED24ABFBE48B
:2008FC003401FCED24ABF582E43401F583E0FA0A8B828C83EAF0802AED24ABFBE43401FC97
:20091C008B828C83E0601BED24ABFBE43401FCED24ABF582E43401F583E0FA1A8B828C83A4
:20093C00EAF0ED24ABFBE43401FC8B828C83E060067B017C0080047B007C008D048CF0050E
:20095C00F0EB800225E0D5F0FBFB42060208CB758200C006120581AF82D006EFB506012218
:20097C008E0A758200020596AF82758200C007120581AE82D0077D00E5236005EF4EFD80FD
:20099C00327F08EF602D1FEF24ABFBE43401FC8B828C83E060067B017C0080047B007C0044
:2009BC008F048CF005F0EB800225E0D5F0FBFB420580D0EEB50501228D0A7582000205965D
:2009DC00AF82C007120880AE82D007740F5EFD5306F0E4C4CEC4540F6ECE540FCE6ECE30C5
:2009FC00E30244F0E5246006ED7003EE7008E5247003ED700122E524600280028D06E52408
:200A1C0060068F057F0080047D007F008D0A8E821205961201B8E5828583F09001A7F0E536
:200A3C00F0A3F02285822512123685822685832785F02874022526F9E43527FAAB288982A4
:200A5C008A838BF0121FDCFB75F005A424F3F9740035F0FA89298A2A752B00752C0274011B
:200A7C002526F52DE43527F52E85282F852D82852E83852FF0121FDC704EE525704A852666
:200A9C00828527838528F0121FDC603C74012529F9E4352AFAAF2B8B82C007C002C0011207
:200ABC000FA9A882AB83ADF0FED001D002D00789828A838FF0E8121F7BA3EB121F7BA3ED00
:200ADC00121F7BA3EE121F7B74012529FDE4352AFEAF2B8D828E838FF0121FDCF9A3121FBD
:200AFC00DCFAA3121FDCFBA3121FDC89828A838BF0C007C006C005120848AC82D005D00689
:200B1C00D007EC70678D828E838FF0121FDCFDA3121FDCFEA3121FDCFFA3121FDCFB8526C3
:200B3C00828527838528F0121FDCF53C8D828E838FF0EB120D72852982852A83852BF012DE
:200B5C001FDCFF5307FB8526828527838528F0121FDC25E025E0FE4207852982852A8385EC
:200B7C002BF0EF121F7B752C02020C3DE4FEFF7401B5252EC0041201B8AB82AD83D0047423
:200B9C00032526F8E43527F9AA28888289838AF0121FDCF8A3121FDCF9EBC398FEED99FFE1
:200BBC0080497402B52544C00412123DAA82AB83ADF0D00474032AFAE43BFB8A828B838D70
:200BDC00F0121FDCFAA3121FDCFB74032526F8E43527F9AD28888289838DF0121FDCF8A354
:200BFC00121FDCF9EAC398FEEB99FFBC0102801BBC022E8525538E548F55852982852A83A2
:200C1C00852BF0121DD485822C80168525458E468F47852982852A83852BF0121B6D858210
:200C3C002C1205B07402B5250DE52C30E20512136B8003121255E52C5403600D12122FADBF
:200C5C0082AE83AFF0E4121F7BE52C30E103021273E52C30E011852D82852E83852FF07436
:200C7C0001121F7B02141F22121228E582700D121221E5826006758201020A40121228E59D
:200C9C0082601A121221E5826008758202120A4080EA121255758200120A4080DF22E582B5
:200CBC00FF75F005A424F3FD740035F0FE8D318E32753300E5306003020D54853182853270
:200CDC00838533F0121FDCFB30E26D74012531F539E43532F53A85333B853982853A8385D9
:200CFC003BF0121FDCFBA3121FDCFCA3121FDCFDA3121FDCFE753C008B828C838DF0EE1254
:200D1C000D728531828532838533F0121FDCFE5306FB8531828532838533F0EE121F7B8586
:200D3C003982853A83853BF0E4121F7BA3121F7BA3121F7BA3021F7B8530347535008F3625
:200D5C001201B8E5828583F0F53785F03890003475F04002130FAC82AD83AEF0FF780079FB
:200D7C00008E02741F5FFBB8000BB90008BAFF05BB1F02805CE4F8F9FA741F5FFB6030E5AF
:200D9C003C60178B82C007C006C005C004121133D004D005D006D00780158B82C007C00686
:200DBC00C005C00412114CD004D005D006D00779008E028A00E8FB6018853C228B82C00724
:200DDC00C006C005C0041208C5D004D005D006D0078D0189038C028A3D741F553DF53EA804
:200DFC003D5300E07900B8C005B90002800BB8E005B90002803E020EAFE53C700122BB00E7
:200E1C0002800BBB01028012BB0202801322853E8212111675820002112A853E82021166F5
:200E3C00A83E88F005F07401800225E0D5F0FBF58202112A5302078B007900E828F8E9334F
:200E5C00F9E828F8E933F9530418E4FDFEFFEDC423CCC423541F6CCC541FCC6CCCFDEEC4BB
:200E7C002354E04DFDEFC423CEC423541F6ECE541FCE6ECEEC48FEED49FFBA0039BE0005E1
:200E9C00BF00028008BE012EBF002B800302021B02020DEB6008853C228B821208C5E53D1F
:200EBC006009853C24853D821209DCE53C7007F523F58202098422AC82AD83AEF0FF753C09
:200EDC00018C828D838EF0EFC007C006C005C004120D721205B0D004D005D006D007753CF5
:200EFC00008C828D838EF0EF120D720205B0E582FF75F005A424F3FD740035F0FC7E008DDB
:200F1C00828C838EF0121FDCFBF9530102E4A2E713C913C9E9B53F1D74015BB53F012274D5
:200F3C00FE5B453F8D828C838EF0121F7B853F118F820214A05303FDE53F25E042038D8204
:200F5C008C838EF0EB021F7B7F24EF60141FEF75F005A424F3F582740035F0F583E4F0804C
:200F7C00E97F08EF600F1FEF24ABF582E43401F583E4F080EE1219FD1214330202251202A2
:0D0F9C004490000512019E121626020C84DE
:0A00A9009001A9E4F09001AA04F010
:200FA900AF827DFF7EFF8E0B8E0CEF2F25E0FF7A048A82C007C006C005C0021211B9E582C8
:200FC900D002D005D006D0077003021059EA75F090A42434F8742035F0F9EF28F582E439A6
:200FE900F583E493F50DA3E493F50EA3E493F50FA3E493F510C4540FF879007B007C00B856
:201009000E2CB90029BB0026BC00238D038E04E4BBFF04BCFF0104FBA90BAC0CE4B9FF0460
:20102900BCFF01046B6007900000E4F5F0228D038E04BBFF0BBCFF08AB0FAC108B058C0658
:20104900AB0BAC0CBBFF09BCFF06850D0B850E0C8A041AEC601A8D038E04BBFF06BCFF03AB
:20106900020FBAAB0BAC0CBBFF06BCFF03020FBA8D048E07BCFF07BFFF047D007E00AB0B8A
:20108900AC0CBBFF08BCFF05E4F50BF50C8E048D077D007E00A80BA90CE4FAFBE84205E9AE
:2010A9004206EA4207EB42048D828E838FF0EC227F047E04EE60198E82C007C0061211B9E9
:2010C900E582D006D00760038F82221E8E0780E4758200227F007E00BE0500502B8EF0056F
:2010E900F07C017D008006EC2CFCED33FDD5F0F79001AAE0FB7A005204EA5205EC4D6003C7
:201109008F82220E8E0780D07582002222AF828FF005F07401800225E0D5F0FBF58202117A
:201129007DE5829001A9F0021115AF828FF005F07401800225E0D5F0FBFF9001A9E04FF0B7
:20114900021115AF828FF005F07401800225E0D5F0FBF4FF9001A9E05FF0021115AF82C088
:20116900071211EEE582D00760058F820211338F8202114CE5829001AAF0021115AF828F6A
:20118900F005F07401800225E0D5F0FBFF9001AAE04FF0021115AF828FF005F07401800288
:2011A90025E0D5F0FBF4FF9001AAE05FF0021115AF829001A9E0FE9001AAE042068FF005AC
:2011C900F07F017D008006EF2FFFED33FDD5F0F77C00EE5207EC5205EF4DB40100B392025F
:2011E900E433F58222AF829001A9E0FE9001AAE042068FF005F07F017D008006EF2FFFED89
:1812090033FDD5F0F77C00EE5207EC5205E4BF0004BD000104F58222D9
:201221009000F0E0F582229000F1E0F582229000F275F0002290005075F000229000F0E0EA
:2012410075F005A42450FEE43400FF7D008E828F838DF0229000F1E07001229000F0E0FF65
:201261000F9000F0EFF09000F1E0FF1F9000F1EFF0229000F0E07001227F009000F0E0FE2E
:201281007D009000F1E07B002EFEEB3DFD1EBEFF011D8F037C00C3EB9EEC64808DF063F0B0
:2012A1008095F05052EF75F005A42450FDE43400FE7A0074012BF560E43CF561900005C0C8
:2012C10007C006C005C002121F96AB82AC83D002D005D006EB2450FBEC3400FC8B608C61CB
:2012E1007562007563057564008D828E838AF0121F26D0070F80849000F1E0FF9000F0E0C5
:20130100FE1EEE2F9000F1F09000F0E4F022AD82AE83AFF09000F0E0FC7B009000F1E0F97C
:201321007A00E92CF560EA3BF561900005C007C006C005121F96AB82AC83D005D006D007C1
:20134100EB2450FBEC3400FC7A008D608E618F627563058A648B828C838AF0121F26900087
:20136100F1E0FF0F9000F1EFF0229000F1E07001227F009000F1E0FE7D001EBEFF011D8F34
:20138100037C00C3EB9EEC64808DF063F08095F040030214139000F0E0FE7D00EB2EF56027
:2013A100EC3DF561900005C007C004C003121F96AD82AE83D003D004ED2450FDEE3400FE7E
:2013C1007A009000F0E0F87900EB28FBEC39FC74012BF560E43CF561900005C006C005C047
:2013E10002121F96AB82AC83D002D005D006EB2450FBEC3400FC8B608C6175620075630548
:201401007564008D828E838AF0121F26D0070F0213749000F1E0FF1F9000F1EFF022900001
:20142100F1E0FF9000F0E02F9000F1F09000F0E4F0229000F0E4F09000F1F09000F2F0220C
:20144100AF82900000E0FE7D001EBEFF011D8F037C00C3EB9EEC64808DF063F08095F05027
:2014610032EF2F2401FEE43400FD7C008F030BEB2B2401FBE43400FA8B608A618C627563E6
:20148100028C648E828D838CF0C007121F26D0070F80AF900000E0FF1F900000EFF02285E6
:2014A1008212E511700302156E7E0FEE60701EEE75F005A4FCADF02449F582ED3423F5830B
:2014C100E493FB74075B2402FBEC2449FCED3423FD74032CFCE43DFDEB60D01BEB2CF5828B
:2014E100E43DF583E493FAB512EE851213751400900000E0FE04900000F0EE2E2401FEE4E4
:201501003400FD7C007560138C617562407563028C648E828D838CF0121F260216267E00B8
:20152100900000E0FDC3EE9D503AEE2EFD2401FBE43400FC8B828C83A3E0FCBCFF0280211F
:20154100ED2401F582E43400F583E0FD7530018D82C006120CBAD0068E82C006121441D05E
:20156100060E80BC753001851282020CBA7E007D00900000E0FCC3ED9C400302161DED2D4E
:20158100FC2401F582E43400F583E0FBB512028003021617EC2401FCE43400FB8C828B8390
:2015A100A3E0FCBCFF03D38001C392038E82C006121441D0063003030216267C007B00C300
:2015C100EB9E5047EB2B2401FAE43400FF8A828F83A3E0FFBFFF030C802EEC2C2401F582CF
:2015E100E43400F583E0FF7530018F82C006C004C003120CBAD003D0048C82C004C0031251
:201601001441D003D004D0060B80B4753001851282120CBA80060D8D060215727530008548
:201621001282020CBA900000E0FFEF602E1FEF2F2401FEE43400FD0EBE00010D8E047E0002
:201641008C828D838EF0121FDCFBBBFF0280DB8C828D838EF0E4121F7B80CF75150074F164
:20166100251550030219B3751600E51575F005A4FCADF02449F582ED3423F583E493FB745C
:20168100075B2402F517EC2449FCED3423FD74032CFCE43DFD7A00C3EA951740030217240F
:2016A100EA2CF582E43DF583E493F97800900000E0FFC3E89F5068E828FF2401F582E434E7
:2016C10000F583E0FBE9B50353E51575F003A4F51985F01A2423F582E51A3400F583E0FBDB
:2016E100BB02028023EF2401FFE43400FB8F828B83A3E0FFBFFF11E5192423F582E51A3402
:2017010000F583E4F00219AE8A078FF005F07401800225E0D5F0FBFF4216800308808E0AF8
:20172100021698C204E51575F003A4FDAFF02423F582EF3400F583E0FCBC01028003021700
:20174100C6E516700FED2423F582EF3400F583E4F00219AEC007C0051201B8AB82AC83D0E2
:2017610005D007ED2423F9EF3400FA89828A83A3E0F9A3E0FAEBC399FBEC9AFCE51575F00E
:2017810005A42449F9742335F0FA89828A83A3E493F97A00C3EB99EC9A40030219AE851769
:2017A100F005F07B017C008006EB2BFBEC33FCD5F0F71BBBFF011CA9167A00E9B50306EA21
:2017C100B50402D204ED2423F582EF3400F583E0FCBC020302188FE51575F005A42449FB7B
:2017E100742335F0FC74032BFBE43CFC751800C3E5189517400302188F8518F005F0780197
:2018010079008006E828F8E933F9D5F0F7AA167E00EA5200EE5201E849606EE5182BF58296
:20182100E43CF583E493FE7A00900000E0F9C3EA995056EA2AF92401F582E43400F583E0B2
:20184100F8EEB5004130041AC003C004E92401F8E43400FC88828C83A374FFF0D004D003F6
:201861008027C003C004E92401F8E43400F908B800010988828983E0FC0C88828983ECF068
:20188100D004D00380030A80A005180217F0ED2423FCEF3400FE8C828E83E07039E5166079
:2018A10035ED2423F582EF3400F5837401F0ED2423FCEF3400FE0CBC00010EC006C0041283
:2018C10001B8AA82AB83D004D0068C828E83EAF0EBA3F00219AEED2423F582EF3400F583C4
:2018E100E0FEBE013230042FED2423F582EF3400F5837402F0E51575F005A42449FC742301
:2019010035F0FE8C828E83A3A3E493FE7530018E82120CBA0219AEED2423F582EF3400F5AF
:2019210083E0FEBE020280030219AEE51575F005A4FCAEF02449F582EE3423F583E493304D
:20194100E30CE4B5160474018001E4FB8037C004C0068517F005F079017A008006E929F9C8
:20196100EA33FAD5F0F719B9FF011AA8167E00E8B50107EEB50203D38001C3B39205E433A6
:20198100FBD006D004EB6025ED2423F582EF3400F583E4F0EC2449FCEE3423FE8C828E8360
:2019A100A3A3E493FF7530008F82120CBA051502165F7F00900000E0FEC3EF9E503DEF2F63
:2019C100FE2401FCE43400FD8C828D83A3E0FDBDFF030F80DFED7023EE2401F582E43400E5
:2019E100F583E0FE7530018E82C007120CBAD0078F82C007121441D00780B9227F0FEF6016
:1B1A0100141FEF75F003A42423F582740035F0F583E4F080E9900000E4F0220A
:201A1C00AC82AD83AEF0FFEE7003EF6006EC7007ED7004C2068002D206A206E433F58222BB
:201A3C00AD82AE83AFF074032DFDE43EFEAB407C007560028C618B828C83C007C006C00531
:201A5C00C004C003121FF8A982AA83D003D004D005D006D007E92DFDEA3EFE8D828E838F51
:201A7C00F0121FDCFFEB30E007EFC4540FF58222740F5FF5822275820022E5826058854421
:201A9C00607561038541828542838543F0121A92AF8274012541FCE43542FDAE438C828DFD
:201ABC00838EF0121FDCA3121FDCA3121FDCFAA3121FDCFB7800790053031F8C828D838EE5
:201ADC00F0E8121F7BA3E9121F7BA3EA121F7BA3EB121F7B8053854460756102854182851A
:201AFC0042838543F0121A92AF8274012541FCE43542FDAE438C828D838EF0121FDCF8A3FA
:201B1C00121FDCF9A3121FDCA3121FDC7A007B008C828D838EF0E8121F7BA3E9121F7BA343
:201B3C00EA121F7BA3EB121F7BEF6021AD41AE42AF438D828E838FF0121FDCFC4304048DF9
:201B5C00828E838FF0EC121F7B7582022275820122AD82AE83AFF0C007C006C005121236DF
:201B7C0085824885834985F04AD005D006D00774012DF8E43EF98F04888289838CF0121F5D
:201B9C00DCA3121FDCA3121FDCA3121FDC54E0C4035407F8E4E875F015A42404F54B742306
:201BBC0035F0F54CC007C006C00512122F85824D85834E85F04FD005D006D007E546454757
:201BDC00604B854D82854E83854FF0121FDC703D854B82854C83A3E493F9A3E493FA4960A0
:201BFC002CA846AC47C3E899EC9A4021854B82854C83E493FC74015CFBBB0103EB8001E49D
:201C1C00F5828D418E428F438C44021A96E4B54502800A7402B54502801C021DB8854B829E
:201C3C00854C83E493F5607561018D828E838FF0121A92021DB8C007C006C00512123D8525
:201C5C00825085835185F052D005D006D00774022548F8E43549F9AC4A888289838CF01224
:201C7C001FDCF874022550FAE43551FBAC528A828B838CF0121FDCFCE8B50403D38001C3B3
:201C9C009207854D82854E83854FF0121FDCFB6003021DB8200703021D5185508285518395
:201CBC008552F0121FDC6003021DB8854B82854C83E493F5607561028D828E838FF0C0074A
:201CDC00C006C005121A92E582D005D006D007603274012DFBE43EF98F028B8289838AF048
:201CFC00121FDCF8A3121FDCF9A3121FDCA3121FDC7A007B008B3C888289838AF0EB120D64
:201D1C0072802E74012DFBE43EF98F028B8289838AF0121FDCF8A3121FDCF9A3121FDCA3AA
:201D3C00121FDC7A007B00888289838AF0EB120ED375820622A94BAA4C7B808C4089828AB2
:201D5C00838BF0C007C006C005121A3CAC82D005D006D007EC30E044855082855183855238
:201D7C00F0121FDCFB8C01530104E4A2E713C913C9A2E713C913C9FA8B007B00E8B5011C4A
:201D9C00EBB50218530402854B82854C83E493F5448D418E428F438C82021A967582002275
:0600B3009001B37401F09E
:201DBC00FC7D007E007F00E4BCE00ABD0007BE0004BF000104F58222AD82AE83AFF0C0075E
:201DDC00C006C00512123685825685835785F058D005D006D007E553701285568285578381
:201DFC008558F0121FDC7004758202220DBD00010E8D828E838FF0121FDCF55CA3121FDCD8
:201E1C00F55DA3121FDCF55EA3121FDCF55FA95EC4C9C4540F69C9540FC969C953010FABF4
:201E3C005DAC5E53040F9001B3E0FAC3995077A954AA55C3E99BEA9C506C7402B5530280F3
:201E5C000475820022C007C006C00512123D85825985835A85F05BD005D006D007740225E7
:201E7C0056F8E43557F9AC58888289838CF0121FDCF874022559FAE4355AFBAC5B8A828BFA
:201E9C00838CF0121FDCFAE8B5021B855982855A83855BF0121FDC7003F582229001B3E097
:201EBC0004F0758202228D828E838FF0121FDCFC7B009001B3E07A002CFCEA3BFB1CBCFF17
:201EDC00011BEC2CFCEB33FBEC2CFCEB33FBEC2419F582EB3423F583E493F9A3E493FAA3EF
:201EFC00E493FBA3E493FC8D828E838FF0E9121F7BA3EA121F7BA3EB121F7BA3EC121F7B5C
:0A1F1C009001B37401F075820122F8
:06007800E478FFF6D8FD5C
:201F2600AD82AE83AFF08D658E668F6785606885616985626AA863A9648803890418B8FFD4
:201F46000119EB4C6025856882856983856AF0121FDCFCA38582688583698D828E838FF0BB
:151F6600EC121F7BA3AD82AE8380CE8565828566838567F022A5
:200056007900E94400601B7A009023F5780175A000E493F2A308B8000205A0D9F4DAF27538
:02007600A0FFE9
:1B1F7B0020F71130F6138883A88220F509F6A8837583002280FEF280F5F02265
:1D1F9600E5828560F0A4C582C0F08561F0A4D0F025F0C5838560F0A42583F5832205
:201FB3007A10E4FBFCE58225E0F582E58333F583EB33FBEC33FCEB9560F5F0EC9561400692
:091FD300FCABF0438201DADD22CF
:20007E007800E84400600A790175A000E4F309D8FC7800E84400600C7900900001E4F0A380
:04009E00D8FCD9FAB7
:0D00490075816A122030E5826003020046D6
:1C1FDC0020F71430F6148883A88220F507E6A88375830022E280F7E49322E02214
:201FF800C2D5E58330E70DD2D5E4C39582F582E49583F583E56130E70DB2D5E4C39560F5D4
:1820180060E49561F561121FB330D50BE4C39582F582E49583F5832261
:042030007582002293
:00000001FF
