:04000000020049327F
:03000B000200F5FB
:0100130032BA
:01001B0032B2
:0100230032AA
:01002B0032A2
:01003300329A
:01003B003292
:030043000200B602
:0300B30002004602
:0300460002013480
:2000B600C021C0E0C0F0C082C083C007C006C005C004C003C002C001C000C0D075D0001271
:2000D600056ED0D0D000D001D002D003D004D005D006D007D083D082D0F0D0E0D02132C063
:2000F60021C0E0C0F0C082C083C007C006C005C004C003C002C001C000C0D075D0001201F0
:200116008DD0D0D000D001D002D003D004D005D006D007D083D082D0F0D0E0D021321201B5
:140136007B1201A5120797120ECBD2AF53B0FC120F0180FBCA
:20014A00AE82AF83EE4F6011E5C330E7FBE5C320E7FB1EBEFF011F80EB22C2A9781B868293
:20016A00088683D2A92275A15575A1AA2275A1002275A15575A1AA74F855B94406F5B97530
:20018A00A10022758A30758CF8781B8606088607781B74012EF6E43F08F622758A30758C17
:0F01AA00F8438901781BE4F608F6D2A9D28C221B
:1801B90075E200C2AF90000112014A02380075A15575A1AA43B11022ED
:2001D100D2B2D294D295D296D297D290D291D2B1D293D2B0227F10EF6004001F80F922C23D
:2001F100B11201E6A2B2B39200E433F53F758200120E71A294B39200E433F53F7582011208
:200211000E71A295B39200E433F53F758209120E71A296B39200E433F53F758202120E71A4
:20023100A297B39200E433F53F75820A120E71A290B39200E433F53F758203120E71A291D2
:20025100B39200E433F53F75820B120E71D2B1C2931201E6A2B2B39200E433F53F758208B6
:20027100120E71A294B39200E433F53F758207120E71A295B39200E433F53F758210120E99
:2002910071A296B39200E433F53F758206120E71A297B39200E433F53F75820F120E71A284
:2002B10090B39200E433F53F758205120E71A291B39200E433F53F75820E120E71D293C200
:2002D100B01201E6A2B2B39200E433F53F758204120E71A294B39200E433F53F75820C1219
:2002F1000E71A295B39200E433F53F75820D120E71A296B39200E433F53F758211120E71B1
:20031100A297B39200E433F53F758212120E71A290B39200E433F53F758213120E71A291D9
:10033100B39200E433F53F758214120E71D2B022EC
:201E310004000000160000000B00000017000000100000001100000008000000120000001A
:201E51000C0000000700000015000000060000000A0000001C0000000F00000018000000F6
:201E7100130000002C0000022A0000012C0000032800000414000000190000001A00000043
:201E91002B0000002A000000090000000D0000002A0000001D0000001B0000002B00000039
:201EB1002A0000000E00000005000000E8000000FFFFFFFF22020000FFFFFFFF2E020000A0
:201ED1001E0000001F000000200000002100000022000000FFFFFFFF310000002D000000F7
:201EF1002E00000023000000240000002500000026000000FFFFFFFFFFFFFFFF27000000F2
:201F110037000000FFFFFFFFFFFFFFFFFFFFFFFFFFFFFFFFFFFFFFFFFFFFFFFFFFFFFFFF95
:201F3100FFFFFFFFFFFFFFFFFFFFFFFFFFFFFFFFFFFFFFFFFFFFFFFFFFFFFFFFFFFFFFFFB0
:201F51001E0200001F02000020020000210200002302000024020000250200002602000050
:201F7100270200003502000034020000310200002D0200002E0200002F02000030020000C5
:201F910036020000FFFFFFFFFFFFFFFFFFFFFFFF37020000FFFFFFFFFFFFFFFFFFFFFFFFD7
:201FB100FFFFFFFFFFFFFFFFFFFFFFFFFFFFFFFFFFFFFFFFFFFFFFFFFFFFFFFFFFFFFFFF30
:201FD100FFFFFFFFFFFFFFFFFFFFFFFFFFFFFFFF29000000FFFFFFFFFFFFFFFF4C00000093
:201FF1004B00000050000000520000004F000000280000002B000000FFFFFFFFFFFFFFFF49
:20201100FFFFFFFF4E0000004A000000510000004D000000FFFFFFFFFFFFFFFFFFFFFFFF89
:20203100FFFFFFFFFFFFFFFFFFFFFFFFFFFFFFFFFFFFFFFFFFFFFFFFFFFFFFFFFFFFFFFFAF
:20205100FFFFFFFFFFFFFFFFFFFFFFFFFFFFFFFFFFFFFFFFFFFFFFFFFFFFFFFFFFFFFFFF8F
:2020710004000000160000000B000000170000000A00000011000000080000000C000000E4
:20209100120000000700000015000000100000000A0000001C0000000F00000018000000A4
:2020B100130000002A0000012C0000022800000428000004FFFFFFFFFFFFFFFFFFFFFFFF57
:2020D100FFFFFFFFFFFFFFFFFFFFFFFFFFFFFFFFFFFFFFFFFFFFFFFFFFFFFFFFFFFFFFFF0F
:2020F100FFFFFFFFFFFFFFFFFFFFFFFFFFFFFFFF01C8000000000000000000000000000016
:202111000000000000003215000100321601020032170203003218030400321904050032F6
:202131001A050600321B060700321C070800321D090A00321E0A0B00321F0B0C0032200D24
:102151000E0032210E0F0032220F10003223000830
:200341009001C7E024F750067E087F0080089001C7E0FDFE7F008EDDE5DD602B8508538597
:20036100095475558085DD567557009001B375F000121D239001C7E0C395DDF0E5DD25080A
:20038100F508E43509F5092275DCC09001C7E4F09001B475F000121DD9FF24F450030205BD
:2003A10008EF240A83F582EF241083F583E473727F08C2083FC808655008E404040504051F
:2003C100040305040405049001B675F000121DD9FFBF0102800ABF02028013BF2238801CF5
:2003E1009001C77412F075086175092180289001C77422F0750873750921801A9001B77545
:20040100F000121DD9FF6002800C9001C7742DF07508957509219001C7E070030205089012
:2004210001B975F000121DD9FF9001C7E0FEC3EF9E50059001C7EFF043D102020341900196
:20044100B575F000121DD99001C7F053D1FD22E5E3547FFF9001B575F000121DD9035480CA
:200461004FF5E322E5E32354019001B3F075DD01229001B3E4F09001B4F075DD02229001F5
:20048100B3E0FFBFA10280030205089001B775F000121DD9FF60030205087F00BF08005019
:2004A1001CEF24B3FDE43401FEEF24BDF582E43401F583E0FC8D828E83F00F80DF75DD08B9
:2004C100229001B3E0FFBFA13E9001B775F000121DD9FF60028030A201E4339001B3F0750F
:2004E100DD01229001B3E0FFBF211C9001B775F000121DD9FF6002800E9001B575F000127B
:200501001DD924FF92012243DC0F229001C7E0700122E5D130E10712034163DC4022748038
:2005210055E3FF9001C7E04FF5E32222AF82C2EAEF24BDF582E43401F583E0FFD2EA8F827F
:2005410022AF82C2EAEF24BDF582E43401F583E50AF0D2EA02055853D2FC2253D2FCE5D2AE
:2005610030E1FB2274FC55D24402F5D22220D90302077475DD00E5D9540FFFADD95305308D
:200581007E00BD0006BE0003020772BD2006BE000302073EBD3005BE00028003020772EF53
:2005A100600302077275DCC09001C7E4F09001B475F000121DD9FE24F45003020739EE24B0
:2005C1000A83F582EE241083F583E4739BAA39EF395FE5398B733913060607060706050703
:2005E100060607079001B675F000121DD9FEBE0102800ABE02028013BE2238801C9001C782
:200601007412F075086175092180289001C77422F0750873750921801A9001B775F0001278
:200621001DD9FE6002800C9001C7742DF07508957509219001C7E070030207399001B97591
:20064100F000121DD9FE9001C7E0FDC3EE9D50059001C7EEF043D10212034102077290011D
:20066100B575F000121DD9FE9001C7F053D1FD020772E5E3547FFE9001B575F000121DD929
:20068100035480FD4EF5E3020772E5E3235401FE9001B3F075DD010207729001B3E4F090FC
:2006A10001B4F075DD020207729001B3E0FEBEA10280030207399001B775F000121DD9FECA
:2006C10060030207397E00BE0800501CEE24B3FCE43401FDEE24BDF582E43401F583E0FB3B
:2006E1008C828D83F00E80DF75DD080207729001B3E0FEBEA1429001B775F000121DD9FE33
:2007010060028034A201E433FE9001B3F075DD01805F9001B3E0FEBE211E9001B775F000D8
:20072100121DD9FE600280109001B575F000121DD9FE24FF9201803943DC0F8034BF0002FD
:200741008005BF012C80229001C7E06024E5D130E10812034163DC408017748055E3FF90D3
:2007610001C7E0FE4FF5E3800874FC55D24402F5D2C2D930D8139001C7E4F0D20175DC0277
:2007810075E300C2DAC2D9C2D810DA0122E5DA20E20375D8FF2243E20653E2FD7F08EF60BD
:2007A1001B1FEF24B3F582E43401F583E4F0EF24BDF582E43401F583E4F080E29001C7E412
:2007C100F0D20175E22975D18175DD0075ECB375ED0175D30875EEBD75EF0175D21275EAB8
:0707E1004075E107D2EA2296
:202161001201100100000008BAAB010000010000000109022200010100C03209040000019B
:2021810003010100092111010001222D000705810308000105010906A101050719E029E748
:2021A1001500250175019508810295017508810195067508150025650507190029658100CD
:0121C100C05D
:0700A2009001A7E4F0A3F0B8
:2007E8009001A7E0FEA3E08E82F58322121983E58260047582012275820022AF827E007DD6
:2008080002BD080050378D82C007C006C00512052DAC82D005D006D007ECB5070AEE540F2A
:2008280060028003ED4206EC7010EE54F0600280098D04ECC454F0FC42060D80C48E8222C1
:20084800AF827E007D08ED70030208EE1D8DF005F07B017C008006EB2BFBEC33FCD5F0F70F
:200868008F017A00E95203EA5204EB4C604BE522601DED24ABFBE43401FCED24ABF582E49F
:200888003401F583E0FA0A8B828C83EAF0802AED24ABFBE43401FC8B828C83E0601BED24CB
:2008A800ABFBE43401FCED24ABF582E43401F583E0FA1A8B828C83EAF0ED24ABFBE43401F7
:2008C800FC8B828C83E060067B017C0080047B007C008D048CF005F0EB800225E0D5F0FB0B
:2008E800FB420602084E758200C00612052DAF82D006EFB50601228E0A758200020542AFF9
:2009080082758200C00712052DAE82D0077D00E5236005EF4EFD80327F08EF602D1FEF2439
:20092800ABFBE43401FC8B828C83E060067B017C0080047B007C008F048CF005F0EB8002AE
:2009480025E0D5F0FBFB420580D0EEB50501228D0A758200020542AF82C007120803AE8251
:20096800D007740F5EFD5306F0E4C4CEC4540F6ECE540FCE6ECE30E30244F0E5246006ED86
:200988007003EE7008E5247003ED700122E524600280028D06E52460068F057F0080047D77
:2009A800007F008D0A8E82120542120164E5828583F09001A7F0E5F0A3F0228582251211D9
:2009C8009D85822685832785F02874022526F9E43527FAAB2889828A838BF0121DD9FB75A7
:2009E800F005A424F3F9740035F0FA89298A2A752B00752C0274012526F52DE43527F52EC5
:200A080085282F852D82852E83852FF0121DD9704EE525704A8526828527838528F0121D32
:200A2800D9603C74012529F9E4352AFAAF2B8B82C007C002C001120F10A882AB83ADF0FEEB
:200A4800D001D002D00789828A838FF0E8121D78A3EB121D78A3ED121D78A3EE121D7874D6
:200A6800012529FDE4352AFEAF2B8D828E838FF0121DD9F9A3121DD9FAA3121DD9FBA31267
:200A88001DD989828A838BF0C007C006C0051207F4AC82D005D006D007ECFB70678D828E5B
:200AA800838FF0121DD9FDA3121DD9FEA3121DD9FFA3121DD9FC8526828527838528F01222
:200AC8001DD9F53C8D828E838FF0EC120CD9852982852A83852BF0121DD9FF5307FB85265C
:200AE800828527838528F0121DD925E025E0FE4207852982852A83852BF0EF121D78752C0E
:200B080002020BA4E4FEFF7401B5252EC003120164AC82AD83D00374032526F8E43527F95E
:200B2800AA28888289838AF0121DD9F8A3121DD9F9ECC398FEED99FF80497402B52544C0C0
:200B4800031211A4AA82AC83ADF0D00374032AFAE43CFC8A828C838DF0121DD9FAA3121DD5
:200B6800D9FC74032526F8E43527F9AD28888289838DF0121DD9F8A3121DD9F9EAC398FE56
:200B8800EC99FFBB01168525458E468F47852982852A83852BF0121AD485822C12055C7442
:200BA80002B5250DE52C30E2051212D280031211BCE52C5403600D121196AD82AE83AFF037
:200BC800E4121D78E52C30E1030211DAE52C30E011852D82852E83852FF07401121D780212
:200BE80013862212118FE582700D121188E58260067582010209C312118FE582601A1211A8
:200C080088E58260087582021209C380EA1211BC7582001209C380DF22E582FF75F005A48B
:200C280024F3FD740035F0FE8D318E32753300E5306003020CBB8531828532838533F0126E
:200C48001DD9FB30E26D74012531F539E43532F53A85333B853982853A83853BF0121DD97C
:200C6800FBA3121DD9FCA3121DD9FDA3121DD9FE753C008B828C838DF0EE120CD985318212
:200C88008532838533F0121DD9FE5306FB8531828532838533F0EE121D78853982853A83DF
:200CA800853BF0E4121D78A3121D78A3121D78A3021D788530347535008F36120164E582ED
:200CC8008583F0F53785F03890003475F040021276AC82AD83AEF0FF780079008E02741F39
:200CE8005FFBB8000BB90008BAFF05BB1F02805CE4F8F9FA741F5FFB6030E53C60178B82A7
:200D0800C007C006C005C00412109AD004D005D006D00780158B82C007C006C005C00412D9
:200D280010B3D004D005D006D00779008E028A00E8FB6018853C228B82C007C006C005C0A2
:200D480004120848D004D005D006D0078D0189038C028A3D741F553DF53EA83D5300E07977
:200D680000B8C005B90002800BB8E005B90002803E020E16E53C700122BB0002800BBB01B4
:200D8800028012BB0202801322853E8212107D758200021091853E820210CDA83E88F0053E
:200DA800F07401800225E0D5F0FBF5820210915302078B007900E828F8E933F9E828F8E9F7
:200DC80033F9530418E4FDFEFFEDC423CCC423541F6CCC541FCC6CCCFDEEC42354E04DFD99
:200DE800EFC423CEC423541F6ECE541FCE6ECEEC48FEED49FFBA0039BE0005BF00028008CE
:200E0800BE012EBF002B80030201C70201B9EB6008853C228B82120848E53D6009853C24D5
:200E2800853D8212095FE53C7007F523F58202090722AC82AD83AEF0FF753C018C828D83C6
:200E48008EF0EFC007C006C005C004120CD912055CD004D005D006D007753C008C828D8378
:200E68008EF0EF120CD902055CE582FF75F005A424F3FD740035F0FC7E008D828C838EF06C
:200E8800121DD9FBF9530102E4A2E713C913C9E9B53F1D74015BB53F012274FE5B453F8D14
:200EA800828C838EF0121D78853F118F820214075303FDE53F25E042038D828C838EF0EB29
:200EC800021D787F24EF60141FEF75F005A424F3F582740035F0F583E4F080E97F08EF609F
:200EE8000F1FEF24ABF582E43401F583E4F080EE12196412139A0201D11201F090000512E8
:080F0800014A12158D020BEBEA
:0A00A9009001A9E4F09001AA04F010
:200F1000AF827DFF7EFF8E0B8E0CEF2F25E0FF7A048A82C007C006C005C002121120E582FA
:200F3000D002D005D006D0077003020FC0EA75F090A42431F8741E35F0F9EF28F582E439DE
:200F5000F583E493F50DA3E493F50EA3E493F50FA3E493F510C4540FF879007B007C00B8EF
:200F70000E2CB90029BB0026BC00238D038E04E4BBFF04BCFF0104FBA90BAC0CE4B9FF04FA
:200F9000BCFF01046B6007900000E4F5F0228D038E04BBFF0BBCFF08AB0FAC108B058C06F2
:200FB000AB0BAC0CBBFF09BCFF06850D0B850E0C8A041AEC601A8D038E04BBFF06BCFF0345
:200FD000020F21AB0BAC0CBBFF06BCFF03020F218D048E07BCFF07BFFF047D007E00AB0B56
:200FF000AC0CBBFF08BCFF05E4F50BF50C8E048D077D007E00A80BA90CE4FAFBE84205E948
:201010004206EA4207EB42048D828E838FF0EC227F047E04EE60198E82C007C0061211201B
:20103000E582D006D00760038F82221E8E0780E4758200227F007E00BE0500502B8EF00508
:20105000F07C017D008006EC2CFCED33FDD5F0F79001AAE0FB7A005204EA5205EC4D600360
:201070008F82220E8E0780D07582002222AF828FF005F07401800225E0D5F0FBF582021015
:20109000E4E5829001A9F002107CAF828FF005F07401800225E0D5F0FBFF9001A9E04FF084
:2010B00002107CAF828FF005F07401800225E0D5F0FBF4FF9001A9E05FF002107CAF82C056
:2010D00007121155E582D00760058F8202109A8F820210B3E5829001AAF002107CAF828F6B
:2010F000F005F07401800225E0D5F0FBFF9001AAE04FF002107CAF828FF005F074018002BC
:2011100025E0D5F0FBF4FF9001AAE05FF002107CAF829001A9E0FE9001AAE042068FF005DF
:20113000F07F017D008006EF2FFFED33FDD5F0F77C00EE5207EC5205EF4DB40100B39202F8
:20115000E433F58222AF829001A9E0FE9001AAE042068FF005F07F017D008006EF2FFFED22
:1811700033FDD5F0F77C00EE5207EC5205E4BF0004BD000104F5822273
:201188009000F0E0F582229000F1E0F582229000F275F0002290005075F000229000F0E084
:2011A80075F005A42450FEE43400FF7D008E828F838DF0229000F1E07001229000F0E0FFFF
:2011C8000F9000F0EFF09000F1E0FF1F9000F1EFF0229000F0E07001227F009000F0E0FEC8
:2011E8007D009000F1E07B002EFEEB3DFD1EBEFF011D8F037C00C3EB9EEC64808DF063F04A
:201208008095F05052EF75F005A42450FDE43400FE7A0074012BF553E43CF554900005C07B
:2012280007C006C005C002121D93AB82AC83D002D005D006EB2450FBEC3400FC8B538C5483
:201248007555007556057557008D828E838AF0121D23D0070F80849000F1E0FF9000F0E08A
:20126800FE1EEE2F9000F1F09000F0E4F022AD82AE83AFF09000F0E0FC7B009000F1E0F916
:201288007A00E92CF553EA3BF554900005C007C006C005121D93AB82AC83D005D006D0077A
:2012A800EB2450FBEC3400FC7A008D538E548F557556058A578B828C838AF0121D23900067
:2012C800F1E0FF0F9000F1EFF0229000F1E07001227F009000F1E0FE7D001EBEFF011D8FCE
:2012E800037C00C3EB9EEC64808DF063F08095F0400302137A9000F0E0FE7D00EB2EF55368
:20130800EC3DF554900005C007C004C003121D93AD82AE83D003D004ED2450FDEE3400FE29
:201328007A009000F0E0F87900EB28FBEC39FC74012BF553E43CF554900005C006C005C0FA
:2013480002121D93AB82AC83D002D005D006EB2450FBEC3400FC8B538C547555007556051A
:201368007557008D828E838AF0121D23D0070F0212DB9000F1E0FF1F9000F1EFF022900047
:20138800F1E0FF9000F0E02F9000F1F09000F0E4F0229000F0E4F09000F1F09000F2F022A6
:2013A800AF82900000E0FE7D001EBEFF011D8F037C00C3EB9EEC64808DF063F08095F050C1
:2013C80032EF2F2401FEE43400FD7C008F030BEB2B2401FBE43400FA8B538A548C557556B4
:2013E800028C578E828D838CF0C007121D23D0070F80AF900000E0FF1F900000EFF0228592
:201408008212E51170030214D57E0FEE60701EEE75F005A4FCADF02416F582ED3421F58373
:20142800E493FB74075B2402FBEC2416FCED3421FD74032CFCE43DFDEB60D01BEB2CF58259
:20144800E43DF583E493FAB512EE851213751400900000E0FE04900000F0EE2E2401FEE47D
:201468003400FD7C007553138C547555407556028C578E828D838CF0121D2302158D7E0032
:20148800900000E0FDC3EE9D503AEE2EFD2401FBE43400FC8B828C83A3E0FCBCFF028021B9
:2014A800ED2401F582E43400F583E0FD7530018D82C006120C21D0068E82C0061213A8D02B
:2014C800060E80BC753001851282020C217E007D00900000E0FCC3ED9C4003021584ED2D1B
:2014E800FC2401F582E43400F583E0FBB51202800302157EEC2401FCE43400FB8C828B83C4
:20150800A3E0FCBCFF03D38001C392038E82C0061213A8D00630030302158D7C007B00C3CD
:20152800EB9E5047EB2B2401FAE43400FF8A828F83A3E0FFBFFF030C802EEC2C2401F58268
:20154800E43400F583E0FF7530018F82C006C004C003120C21D003D0048C82C004C0031283
:2015680013A8D003D004D0060B80B4753001851282120C2180060D8D060214D975300085AF
:201588001282020C21900000E0FFEF602E1FEF2F2401FEE43400FD0EBE00010D8E047E0035
:2015A8008C828D838EF0121DD9FBBBFF0280DB8C828D838EF0E4121D7880CF75150074F108
:2015C8002515500302191A751600E51575F005A4FCADF02416F582ED3421F583E493FB74C4
:2015E800075B2402F517EC2416FCED3421FD74032CFCE43DFD7A00C3EA9517400302168B78
:20160800EA2CF582E43DF583E493F97800900000E0FFC3E89F5068E828FF2401F582E43480
:2016280000F583E0FBE9B50353E51575F003A4F51985F01A2423F582E51A3400F583E0FB74
:20164800BB02028023EF2401FFE43400FB8F828B83A3E0FFBFFF11E5192423F582E51A349B
:2016680000F583E4F00219158A078FF005F07401800225E0D5F0FBFF4216800308808E0A2B
:201688000215FFC204E51575F003A4FDAFF02423F582EF3400F583E0FCBC01028003021734
:2016A8002DE516700FED2423F582EF3400F583E4F0021915C007C005120164AB82AC83D002
:2016C80005D007ED2423F9EF3400FA89828A83A3E0F9A3E0FAEBC399FBEC9AFCE51575F0A8
:2016E80005A42416F9742135F0FA89828A83A3E493F97A00C3EB99EC9A40030219158517D1
:20170800F005F07B017C008006EB2BFBEC33FCD5F0F71BBBFF011CA9167A00E9B50306EABA
:20172800B50402D204ED2423F582EF3400F583E0FCBC02030217F6E51575F005A42416FBE1
:20174800742135F0FC74032BFBE43CFC751800C3E518951740030217F68518F005F07801CC
:2017680079008006E828F8E933F9D5F0F7AA167E00EA5200EE5201E849606EE5182BF58230
:20178800E43CF583E493FE7A00900000E0F9C3EA995056EA2AF92401F582E43400F583E04C
:2017A800F8EEB5004130041AC003C004E92401F8E43400FC88828C83A374FFF0D004D00390
:2017C8008027C003C004E92401F8E43400F908B800010988828983E0FC0C88828983ECF002
:2017E800D004D00380030A80A00518021757ED2423FCEF3400FE8C828E83E07039E51660AC
:2018080035ED2423F582EF3400F5837401F0ED2423FCEF3400FE0CBC00010EC006C004121C
:201828000164AA82AB83D004D0068C828E83EAF0EBA3F0021915ED2423F582EF3400F5834A
:20184800E0FEBE013230042FED2423F582EF3400F5837402F0E51575F005A42416FC7421CF
:2018680035F0FE8C828E83A3A3E493FE7530018E82120C21021915ED2423F582EF3400F57B
:2018880083E0FEBE02028003021915E51575F005A4FCAEF02416F582EE3421F583E49330B5
:2018A800E30CE4B5160474018001E4FB8037C004C0068517F005F079017A008006E929F962
:2018C800EA33FAD5F0F719B9FF011AA8167E00E8B50107EEB50203D38001C3B39205E43340
:2018E800FBD006D004EB6025ED2423F582EF3400F583E4F0EC2416FCEE3421FE8C828E832F
:20190800A3A3E493FF7530008F82120C2105150215C67F00900000E0FEC3EF9E503DEF2F2F
:20192800FE2401FCE43400FD8C828D83A3E0FDBDFF030F80DFED7023EE2401F582E434007E
:20194800F583E0FE7530018E82C007120C21D0078F82C0071213A8D00780B9227F0FEF60E2
:1B196800141FEF75F003A42423F582740035F0F583E4F080E9900000E4F022A4
:20198300AC82AD83AEF0FFEE7003EF6006EC7007ED7004C2068002D206A206E433F5822255
:2019A300AD82AE83AFF074032DFDE43EFEAB407C007553028C548B828C83C007C006C005E5
:2019C300C004C003121DF5A982AA83D003D004D005D006D007E92DFDEA3EFE8D828E838FF0
:2019E300F0121DD9FFEB30E007EFC4540FF58222740F5FF5822275820022E58260588544C0
:201A0300537554038541828542838543F01219F9AF8274012541FCE43542FDAE438C828D4A
:201A2300838EF0121DD9A3121DD9A3121DD9FAA3121DD9FB7800790053031F8C828D838E92
:201A4300F0E8121D78A3E9121D78A3EA121D78A3EB121D78805385445375540285418285E1
:201A630042838543F01219F9AF8274012541FCE43542FDAE438C828D838EF0121DD9F8A332
:201A8300121DD9F9A3121DD9A3121DD97A007B008C828D838EF0E8121D78A3E9121D78A3F6
:201AA300EA121D78A3EB121D78EF6021AD41AE42AF438D828E838FF0121DD9FC4304048DA2
:201AC300828E838FF0EC121D787582022275820122AD82AE83AFF0C007C006C00512119D18
:201AE30085824885834985F04AD005D006D00774012DF8E43EF98F04888289838CF0121DF9
:201B0300D9A3121DD9A3121DD9A3121DD954E0C4035407F8E4E875F015A42401F54B7421B6
:201B230035F0F54CC007C006C00512119685824D85834E85F04FD005D006D007E54645478A
:201B4300604B854D82854E83854FF0121DD9703D854B82854C83A3E493F9A3E493FA49603E
:201B63002CA846AC47C3E899EC9A4021854B82854C83E493FC74015CFBBB0103EB8001E436
:201B8300F5828D418E428F438C440219FDE4B54502800A7402B54502801C021D1F854B826B
:201BA300854C83E493F5537554018D828E838FF01219F9021D1FC007C006C0051211A485A6
:201BC300825085835185F052D005D006D00774022548F8E43549F9AC4A888289838CF012BE
:201BE3001DD9F874022550FAE43551FBAC528A828B838CF0121DD9FCE8B50403D38001C357
:201C03009207854D82854E83854FF0121DD9FB6003021D1F200703021CB885508285518366
:201C23008552F0121DD96003021D1F854B82854C83E493F5537554028D828E838FF0C0079B
:201C4300C006C0051219F9E582D005D006D007603274012DFBE43EF98F028B8289838AF07B
:201C6300121DD9F8A3121DD9F9A3121DD9A3121DD97A007B008B3C888289838AF0EB120C12
:201C8300D9802E74012DFBE43EF98F028B8289838AF0121DD9F8A3121DD9F9A3121DD9A3EC
:201CA300121DD97A007B00888289838AF0EB120E3A75820622A94BAA4C7B808C4089828AEA
:201CC300838BF0C007C006C0051219A3AC82D005D006D007EC30E04485508285518385526C
:201CE300F0121DD9FB8C01530104E4A2E713C913C9A2E713C913C9FA8B007B00E8B5011CE9
:201D0300EBB50218530402854B82854C83E493F5448D418E428F438C820219FD75820022A8
:06007800E478FFF6D8FD5C
:201D2300AD82AE83AFF08D588E598F5A85535B85545C85555DA856A9578803890418B8FF68
:201D43000119EB4C6025855B82855C83855DF0121DD9FCA385825B85835C8D828E838FF006
:151D6300EC121D78A3AD82AE8380CE855882855983855AF022D6
:200056007900E94400601B7A009021C2780175A000E493F2A308B8000205A0D9F4DAF2756D
:02007600A0FFE9
:1B1D780020F71130F6138883A88220F509F6A8837583002280FEF280F5F0226A
:1D1D9300E5828553F0A4C582C0F08554F0A4D0F025F0C5838553F0A42583F5832231
:201DB0007A10E4FBFCE58225E0F582E58333F583EB33FBEC33FCEB9553F5F0EC95544006B1
:091DD000FCABF0438201DADD22D4
:20007E007800E84400600A790175A000E4F309D8FC7800E84400600C7900900001E4F0A380
:04009E00D8FCD9FAB7
:0D00490075815D121E2DE5826003020046E8
:1C1DD90020F71430F6148883A88220F507E6A88375830022E280F7E49322E02219
:201DF500C2D5E58330E70DD2D5E4C39582F582E49583F583E55430E70DB2D5E4C39553F5F3
:181E150053E49554F554121DB030D50BE4C39582F582E49583F5832292
:041E2D007582002298
:00000001FF
